{
  "contractName": "NFTVault",
  "abi": [
    {
      "inputs": [
        {
          "internalType": "address",
          "name": "nftContract",
          "type": "address"
        },
        {
          "internalType": "uint256",
          "name": "tokenId",
          "type": "uint256"
        },
        {
          "internalType": "address",
          "name": "secondSigner",
          "type": "address"
        }
      ],
      "name": "depositNFT",
      "outputs": [],
      "stateMutability": "nonpayable",
      "type": "function"
    },
    {
      "inputs": [
        {
          "internalType": "address",
          "name": "nftContract",
          "type": "address"
        },
        {
          "internalType": "uint256",
          "name": "tokenId",
          "type": "uint256"
        }
      ],
      "name": "withdrawNFT",
      "outputs": [],
      "stateMutability": "nonpayable",
      "type": "function"
    },
    {
      "inputs": [
        {
          "internalType": "address",
          "name": "nftContract",
          "type": "address"
        },
        {
          "internalType": "uint256",
          "name": "tokenId",
          "type": "uint256"
        }
      ],
      "name": "approveWithdraw",
      "outputs": [],
      "stateMutability": "nonpayable",
      "type": "function"
    },
    {
      "inputs": [
        {
          "internalType": "address",
          "name": "nftContract",
          "type": "address"
        },
        {
          "internalType": "uint256",
          "name": "tokenId",
          "type": "uint256"
        }
      ],
      "name": "getApproval",
      "outputs": [
        {
          "internalType": "address",
          "name": "",
          "type": "address"
        },
        {
          "internalType": "address",
          "name": "",
          "type": "address"
        },
        {
          "internalType": "bool",
          "name": "",
          "type": "bool"
        }
      ],
      "stateMutability": "view",
      "type": "function",
      "constant": true
    },
    {
      "inputs": [
        {
          "internalType": "address",
          "name": "nftContract",
          "type": "address"
        },
        {
          "internalType": "uint256",
          "name": "tokenId",
          "type": "uint256"
        }
      ],
      "name": "removeApproval",
      "outputs": [],
      "stateMutability": "nonpayable",
      "type": "function"
    }
  ],
  "bytecode": "0x608060405234801561001057600080fd5b50610ef6806100206000396000f3fe608060405234801561001057600080fd5b50600436106100575760003560e01c80634e1ca1201461005c5780636088e93a1461007857806397be552314610094578063b537b269146100b0578063c57d3d9e146100cc575b600080fd5b61007660048036038101906100719190610b33565b6100fe565b005b610092600480360381019061008d9190610b33565b61021c565b005b6100ae60048036038101906100a99190610b73565b610596565b005b6100ca60048036038101906100c59190610b33565b610835565b005b6100e660048036038101906100e19190610b33565b610954565b6040516100f593929190610bf0565b60405180910390f35b60008060008473ffffffffffffffffffffffffffffffffffffffff1673ffffffffffffffffffffffffffffffffffffffff168152602001908152602001600020600083815260200190815260200160002090503373ffffffffffffffffffffffffffffffffffffffff168160010160009054906101000a900473ffffffffffffffffffffffffffffffffffffffff1673ffffffffffffffffffffffffffffffffffffffff16146101e3576040517f08c379a00000000000000000000000000000000000000000000000000000000081526004016101da90610c84565b60405180910390fd5b8060010160149054906101000a900460ff166102175760018160010160146101000a81548160ff0219169083151502179055505b505050565b60008060008473ffffffffffffffffffffffffffffffffffffffff1673ffffffffffffffffffffffffffffffffffffffff16815260200190815260200160002060008381526020019081526020016000206040518060600160405290816000820160009054906101000a900473ffffffffffffffffffffffffffffffffffffffff1673ffffffffffffffffffffffffffffffffffffffff1673ffffffffffffffffffffffffffffffffffffffff1681526020016001820160009054906101000a900473ffffffffffffffffffffffffffffffffffffffff1673ffffffffffffffffffffffffffffffffffffffff1673ffffffffffffffffffffffffffffffffffffffff1681526020016001820160149054906101000a900460ff1615151515815250509050600073ffffffffffffffffffffffffffffffffffffffff16816000015173ffffffffffffffffffffffffffffffffffffffff16036103b4576040517f08c379a00000000000000000000000000000000000000000000000000000000081526004016103ab90610cf0565b60405180910390fd5b3373ffffffffffffffffffffffffffffffffffffffff16816000015173ffffffffffffffffffffffffffffffffffffffff1614610426576040517f08c379a000000000000000000000000000000000000000000000000000000000815260040161041d90610d5c565b60405180910390fd5b806040015161046a576040517f08c379a000000000000000000000000000000000000000000000000000000000815260040161046190610dee565b60405180910390fd5b8273ffffffffffffffffffffffffffffffffffffffff166342842e0e308360000151856040518463ffffffff1660e01b81526004016104ab93929190610e1d565b600060405180830381600087803b1580156104c557600080fd5b505af11580156104d9573d6000803e3d6000fd5b505050506000808473ffffffffffffffffffffffffffffffffffffffff1673ffffffffffffffffffffffffffffffffffffffff1681526020019081526020016000206000838152602001908152602001600020600080820160006101000a81549073ffffffffffffffffffffffffffffffffffffffff02191690556001820160006101000a81549073ffffffffffffffffffffffffffffffffffffffff02191690556001820160146101000a81549060ff02191690555050505050565b600073ffffffffffffffffffffffffffffffffffffffff166000808573ffffffffffffffffffffffffffffffffffffffff1673ffffffffffffffffffffffffffffffffffffffff168152602001908152602001600020600084815260200190815260200160002060000160009054906101000a900473ffffffffffffffffffffffffffffffffffffffff1673ffffffffffffffffffffffffffffffffffffffff1614610677576040517f08c379a000000000000000000000000000000000000000000000000000000000815260040161066e90610ea0565b60405180910390fd5b60405180606001604052803373ffffffffffffffffffffffffffffffffffffffff1681526020018273ffffffffffffffffffffffffffffffffffffffff168152602001600015158152506000808573ffffffffffffffffffffffffffffffffffffffff1673ffffffffffffffffffffffffffffffffffffffff168152602001908152602001600020600084815260200190815260200160002060008201518160000160006101000a81548173ffffffffffffffffffffffffffffffffffffffff021916908373ffffffffffffffffffffffffffffffffffffffff16021790555060208201518160010160006101000a81548173ffffffffffffffffffffffffffffffffffffffff021916908373ffffffffffffffffffffffffffffffffffffffff16021790555060408201518160010160146101000a81548160ff0219169083151502179055509050508273ffffffffffffffffffffffffffffffffffffffff166323b872dd3330856040518463ffffffff1660e01b81526004016107fe93929190610e1d565b600060405180830381600087803b15801561081857600080fd5b505af115801561082c573d6000803e3d6000fd5b50505050505050565b60008060008473ffffffffffffffffffffffffffffffffffffffff1673ffffffffffffffffffffffffffffffffffffffff168152602001908152602001600020600083815260200190815260200160002090503373ffffffffffffffffffffffffffffffffffffffff168160010160009054906101000a900473ffffffffffffffffffffffffffffffffffffffff1673ffffffffffffffffffffffffffffffffffffffff161461091a576040517f08c379a000000000000000000000000000000000000000000000000000000000815260040161091190610c84565b60405180910390fd5b8060010160149054906101000a900460ff161561094f5760008160010160146101000a81548160ff0219169083151502179055505b505050565b6000806000806000808773ffffffffffffffffffffffffffffffffffffffff1673ffffffffffffffffffffffffffffffffffffffff16815260200190815260200160002060008681526020019081526020016000206040518060600160405290816000820160009054906101000a900473ffffffffffffffffffffffffffffffffffffffff1673ffffffffffffffffffffffffffffffffffffffff1673ffffffffffffffffffffffffffffffffffffffff1681526020016001820160009054906101000a900473ffffffffffffffffffffffffffffffffffffffff1673ffffffffffffffffffffffffffffffffffffffff1673ffffffffffffffffffffffffffffffffffffffff1681526020016001820160149054906101000a900460ff1615151515815250509050806000015181602001518260400151935093509350509250925092565b600080fd5b600073ffffffffffffffffffffffffffffffffffffffff82169050919050565b6000610aca82610a9f565b9050919050565b610ada81610abf565b8114610ae557600080fd5b50565b600081359050610af781610ad1565b92915050565b6000819050919050565b610b1081610afd565b8114610b1b57600080fd5b50565b600081359050610b2d81610b07565b92915050565b60008060408385031215610b4a57610b49610a9a565b5b6000610b5885828601610ae8565b9250506020610b6985828601610b1e565b9150509250929050565b600080600060608486031215610b8c57610b8b610a9a565b5b6000610b9a86828701610ae8565b9350506020610bab86828701610b1e565b9250506040610bbc86828701610ae8565b9150509250925092565b610bcf81610abf565b82525050565b60008115159050919050565b610bea81610bd5565b82525050565b6000606082019050610c056000830186610bc6565b610c126020830185610bc6565b610c1f6040830184610be1565b949350505050565b600082825260208201905092915050565b7f4e6f7420616e20617070726f7665720000000000000000000000000000000000600082015250565b6000610c6e600f83610c27565b9150610c7982610c38565b602082019050919050565b60006020820190508181036000830152610c9d81610c61565b9050919050565b7f4e4654206e6f74206465706f7369746564000000000000000000000000000000600082015250565b6000610cda601183610c27565b9150610ce582610ca4565b602082019050919050565b60006020820190508181036000830152610d0981610ccd565b9050919050565b7f4e6f74206f776e6572206f6620746865204e4654000000000000000000000000600082015250565b6000610d46601483610c27565b9150610d5182610d10565b602082019050919050565b60006020820190508181036000830152610d7581610d39565b9050919050565b7f5365636f6e64207369676e657220686173206e6f74207369676e65642061707060008201527f726f76616c000000000000000000000000000000000000000000000000000000602082015250565b6000610dd8602583610c27565b9150610de382610d7c565b604082019050919050565b60006020820190508181036000830152610e0781610dcb565b9050919050565b610e1781610afd565b82525050565b6000606082019050610e326000830186610bc6565b610e3f6020830185610bc6565b610e4c6040830184610e0e565b949350505050565b7f4e465420616c7265616479206465706f73697465642100000000000000000000600082015250565b6000610e8a601683610c27565b9150610e9582610e54565b602082019050919050565b60006020820190508181036000830152610eb981610e7d565b905091905056fea2646970667358221220e28cdb55960fa8bdbeb2b68f9bde0aa45bb6c41ea8071bebb1d68ccf77dd7b8564736f6c634300080e0033",
  "immutableReferences": {},
  "source": "// SPDX-License-Identifier: MIT\npragma solidity >=0.4.22 <0.9.0;\nimport \"@openzeppelin/contracts/interfaces/IERC721.sol\";\n\ncontract NFTVault {\n  struct approval {\n    address owner;\n    address secondSigner;\n    bool approved;\n  }\n  // map nftContract => nftID => approval\n  mapping(address => mapping(uint256 => approval)) private approvals;\n\n  function depositNFT(address nftContract, uint tokenId, address secondSigner) public {\n    require(approvals[nftContract][tokenId].owner == address(0), \"NFT already deposited!\");\n    approvals[nftContract][tokenId] = approval(msg.sender, secondSigner, false);\n    IERC721(nftContract).transferFrom(msg.sender, address(this), tokenId);\n  }\n\n  function withdrawNFT(address nftContract, uint tokenId) public {\n    approval memory data = approvals[nftContract][tokenId];\n    require(data.owner != address(0), \"NFT not deposited\");\n    require(data.owner == msg.sender, \"Not owner of the NFT\");\n    require(data.approved, \"Second signer has not signed approval\");\n    IERC721(nftContract).safeTransferFrom(address(this), data.owner, tokenId);\n    delete approvals[nftContract][tokenId];\n  }\n\n  function approveWithdraw(address nftContract, uint tokenId) public {\n    approval storage data = approvals[nftContract][tokenId];\n    require(data.secondSigner == msg.sender, \"Not an approver\");\n    if (!data.approved) {\n      data.approved = true;\n    }\n  }\n\n  function getApproval(address nftContract, uint tokenId) public view returns (address, address, bool) {\n    approval memory data = approvals[nftContract][tokenId];\n    return (data.owner, data.secondSigner, data.approved);\n  }\n\n  function removeApproval(address nftContract, uint tokenId) public {\n    approval storage data = approvals[nftContract][tokenId];\n    require(data.secondSigner == msg.sender, \"Not an approver\");\n    if (data.approved) {\n      data.approved = false;\n    }\n  }\n}\n",
  "sourcePath": "/Users/bluer/Developer/snap-pfp-pointer/packages/truffle/contracts/NFTVault.sol",
  "compiler": {
    "name": "solc",
    "version": "0.8.14+commit.80d49f37.Emscripten.clang"
  },
  "schemaVersion": "3.4.11",
  "updatedAt": "2022-12-19T21:29:00.111Z",
  "networkType": "ethereum",
  "devdoc": {
    "kind": "dev",
    "methods": {},
    "version": 1
  },
  "userdoc": {
    "kind": "user",
    "methods": {},
    "version": 1
  }
}